:1008F000EF4E600F7D027CEFDCFEDDFCEF1F70F041
:030900001E80ED69
:0109030022D1
:1008B900AB07AA067F147E001208F0AF03EA702086
:1008C900EF14600F1460111460132403701220B028
:1008D9000F80FB20B10A80FB20B20580FB30B3FDFD
:0708E9007F147E000208F0FD
:1008000075080175090120B1177F017E001208B932
:10081000AF087801EF08800123D8FDF508F4F5A0B2
:1008200020B00DE4FFFE1208B90508E508F4F5A0B4
:1008300020B2217F027E001208B9E50970047F0111
:1008400080027F008F09E5096007E508F4F5A080C4
:100850000375A0FF20B3AF7F037E001208B9E5093E
:1008600070047F0180027F008F09E5096098AF085E
:100870007801EF08800103D8FDF508F4F5A0E4F94C
:10088000E9C3943250E47F0A7E001208F020B005DC
:10089000E4FFFE801920B1067F017E00801020B2A7
:1008A000067F027E00800720B30C7F037E001208C3
:0908B000B9E4F50980B40980C720
:03000000020904EE
:0C090400787FE4F6D8FD75810902080038
:00000001FF
