:0308DA0001080012
:1008BF005389F0438901758C3C758AB0D2A9D2AFA8
:0308CF00D28C22A6
:0808D20075A0FE1208BF80FEB4
:03000B0002088C5C
:10088C00C0E0C0D075D000C000C007758C3C758A24
:10089C00B00508E508C3940A4010750800AFA078AD
:1008AC0001EF08800123D8FDF5A0D007D000D0D0EF
:0308BC00D0E03257
:03000000020800F3
:0C080000787FE4F6D8FD758108020847F7
:10080C000208D2E493A3F8E493A34003F68001F228
:10081C0008DFF48029E493A3F85407240CC8C333ED
:10082C00C4540F4420C8834004F456800146F6DFBC
:10083C00E4800B01020408102040809008DAE47E6A
:10084C00019360BCA3FF543F30E509541FFEE493B1
:10085C00A360010ECF54C025E060A840B8E493A378
:10086C00FAE493A3F8E493A3C8C582C8CAC583CAA3
:10087C00F0A3C8C582C8CAC583CADFE9DEE780BE5B
:0108DD00001A
:00000001FF
